:080000002E14040000000000B2
:08004400720500002602000015
:100400003220EF00C3202000008041001040BA00DD
:100410000160EF0000000600C0F90000A4B0000079
:100420009992000082F80000809000003220EF00D6
:1004300023222000008041001040BA000160EF003C
:1004400000000600FEFD0000FBF700004200F8007F
:100450003600F800801F7800200020000C00090002
:10046000B01F78006048E200620032000368EC00D0
:100470000468EC004A08E2002600320014408000C4
:100480004822DE00830C2000041CE1000C003E002A
:10049000244080004822DE006124E10004003A008C
:1004A0000568EF00C882A900CC82A80004003700CC
:1004B00010C0B30005E8B700C882A900CC82A9002B
:1004C0004A28ED00544280006020E10011003C0009
:1004D0004A28EF00C8C2A900CCC2A900C8E2A900FE
:1004E000CCE2A90020C0B30045E8B7000208A9008B
:1004F000C882A900CC82A800C802A900CC02A90029
:10050000C862A900CC62A9004608E20001003A00D6
:100510006068EF004608E2002B00320014408000C3
:100520004822DE00830C2000041CE1000C003E0089
:10053000244080004822DE006124E10004003A00EB
:100540000568EF00C802A900CC02A800040037002B
:1005500010C0B30005E8B700C802A900CC02A9008A
:100560004628ED00344280006020E10016003C0087
:100570004628EF00C8C2A900CCC2A800C8E2A90062
:10058000CCE2A800244280004822DE006324E1007F
:1005900001003A004568EF000208A900C882A900DE
:1005A000CC82A900C802A900CC02A8004A08E20037
:1005B00005003A004C08E20003003A004808E20057
:1005C00001003A006068EF00144080004822DE001D
:1005D000830C2000041CE10001003E000368EF00D2
:1005E00024408000830C2000041CE10001003E0038
:1005F0000468EF008500A900A00120000C0009009C
:100600004F1078004F0078003600F9004200F900E2
:10061000004006008C68EF004448E20003003A0006
:100620000A08F8006208F9002F0037002442800011
:100630006124E10003003A005608F8006208F9005E
:1006400029003700244280006224E10003003A00C0
:100650005808F8006208F90023003700244280009F
:100660006324E10003003A005A08F8006208F90028
:100670001D003700244280006424E10003003A009A
:100680005C08F8006208F900170037002442800077
:100690006524E10003003A005208F8006208F900FE
:1006A00011003700244280006624E10003003A0074
:1006B0004E08F8006208F9000B0037002442800061
:1006C0006724E10003003A005008F8006208F900CE
:1006D00005003700244280006824E10002003A004F
:1006E0005408F8006208F9006428ED0024438000F3
:1006F0006020E10019003C007400200024438800C1
:100700001443800043062000110009000302D800B2
:100710002FE8B700144380004306200011000900B1
:100720000302D8000100780042E8B70014428000BC
:100730000960EF00A3002000110009000382D80027
:1007400042E8B70014438000A30020001100090014
:100750000302D8000100780043E8B7006168EC00AC
:10076000044380004822DE006224E10001003400DE
:100770006168EF0061C8BF000160EF000080B20057
:10078000050032001080B200080032003080B20054
:100790000B0032000F00370043C8BF008EE8B700DF
:1007A00061C8BF008FE8B7000A00370042C8BF0029
:1007B0008EE8B70061C8BF008FE8B70005003700BA
:1007C0002FC8BF008EE8B70061C8BF008FE8B70030
:1007D000000037008EC8BF000000FB0000020200CE
:1007E000000000008DE8B7000248AE0008003700A6
:1007F0006148E20006003A00344080004822DE00F2
:100800007424E100020036008DE8A90000003700E2
:10081000044380004822DE006124E10003003A0026
:100820004448E20001003A008DE8A90070C0B3001E
:100830008CE8B700644480006024E10011003500BA
:100840008DC8BF00800078008CC8BF000100A500E3
:1008500002003100CD82A90001003700CD82A8003E
:10086000C982A900C962A900CD62A80002000900DE
:1008700000000000C962A900CD62A9008C68ED00EB
:10088000ECFF37008FC8BF000000FB00160202001B
:10089000000000008DE8B700044380004822DE001D
:1008A0006224E10004003A002F48E20002003A000E
:1008B0008D48A80009003700044380004822DE006C
:1008C0006124E10005003A004248E20003003A00DA
:1008D0002F48E20001003A008D28A8004448E200B9
:1008E00006003A00644480004822DE00044FB30052
:1008F000044078008DE8B7005D0037002442800096
:100900006124E10007003A008D88A900644480005A
:100910004822DE00044EB300044078008DE8B700A2
:1009200053003700244280006224E10007003A00AF
:100930008DA8A900644480004822DE00044DB30065
:10094000044078008DE8B700490037002442800059
:100950006324E1000B003A00644480004822DE007A
:10096000F44AB200044078008DE8B7006444800087
:100970004822DE00044AB300044078008DE8B70046
:100980003B003700244280006424E1000B003A0061
:10099000644480004822DE00F449B200044078003C
:1009A0008DE8B700644480004822DE000449B300AB
:1009B000044078008DE8B7002D0037002442800005
:1009C0006524E1000B003A00644480004822DE0008
:1009D000F446B200044078008DE8B700644480001B
:1009E0004822DE000446B300044078008DE8B700DA
:1009F0001F003700244280006624E1000B003A000B
:100A0000644480004822DE00F445B20004407800CF
:100A10008DE8B700644480004822DE000445B3003E
:100A2000044078008DE8B7001100370024428000B0
:100A30006724E10007003A00644480004822DE0099
:100A4000F442B200044078008DE8B7008DA8A800F9
:100A500007003700244280006824E10004003A00C7
:100A60008DC8BF007F4060008DE8B7008D88A8006A
:100A700070C0B3008CE8B700644480006024E100DB
:100A8000110035008DC8BF00800078008CC8BF0001
:100A90000100A50002003100CD82A900010037004D
:100AA000CD82A800C982A900C962A900CD62A800B0
:100AB0000200090000000000C962A900CD62A9007F
:100AC0008C68ED00ECFF3700C942A900CD42A800B8
:100AD0000200090000000000C942A900CD42A9009F
:100AE000000006004200F8003600F800801F780081
:100AF000200020000C000900B01F78000A0302004B
:100B0000000000000768ED000748E20002003A001C
:100B100080C2B30007E8B7002D48E20004003200AD
:100B20002D68ED002D48E20001003A002D68EF002D
:100B30005E08E200090032005E28ED00F442800009
:100B40006020E10005003C005E28EF004628EF0031
:100B50004828EF004A28EF004C28EF0084E0A90065
:100B6000A00120000C0009004F1078004F00780011
:100B70003600F9004200F900004006000000E000E5
:100B80004220AF0004003700990F09000000000068
:100B90000000E900F9FF37000000060004002E0005
:100BA00044168800C902A900CD02A800C922A900E4
:100BB000CD22A80000000600C902A900CD02A800AD
:100BC0000300090000000000C922A900CD22A900ED
:100BD0000300090000000000C902A900CD02A9001D
:100BE0000300090000000000000006007568EF0027
:100BF000A44380004822DE006824E1001400310094
:100C0000C902A900CD02A9000300090000000000EC
:100C100074E8AE0003003700C922A900CD22A80065
:100C200002003700C922A900CD22A9000300090053
:100C300000000000C902A900CD02A80003000900BD
:100C4000000000007468D4007568EC00E8FF37000D
:100C5000C902A900CD02A90003000900000000009C
:100C6000C922A8000300090000000000C902A90071
:100C7000CD02A8000300090000000000C922A8005E
:100C80007668EF00CB22AF007668EC0004002E00FF
:100C900044168800C902A900CD02A900030009007A
:100CA0000000000076C8BF0000E0B70000000600AA
:100CB000C922A900CD22A9000300090000000000FC
:100CC000C902A900CD02A80003000900000000002D
:100CD000C922A900CD22A8000300090000000000DD
:100CE00000000600CE05020000000000DC05020046
:100CF0000000000000CDB30074E8B700F605020064
:100D0000000000000268A9000000AF000268A8000F
:100D100080C1B30074E8B700F605020000000000CF
:100D20000288A9000000AF000288A800580602004F
:100D30000000000000000600820020000060FE00AD
:100D40000000090000000000C422A900C022A90080
:100D50000060FE00010009000000000081C0D20018
:100D6000C402A9004200AF00C002A8004200AE00C9
:100D7000C002A900C022A800C222AE00FEFF3700B8
:100D80000201E900EDFF3A000060FE0000000900EA
:100D900000000000C422A900C022A9000000000039
:100DA000C002A8000060FE00010009000000000071
:100DB0000060FE000100090000000000C022A80041
:100DC000C222AE00FEFF37000060FE0001000900F5
:100DD0000000000000002000C202AF000000A000E0
:100DE000C422A900C022A900C402A900C002A9000F
:100DF00000000600C002A8000060FE00000009001C
:100E000000000000C022A8000060FE0001000900F0
:100E100000000000C402A900C002A9000060FE009A
:100E20000000090000000000C422A900C022A9009F
:100E300001CAB3009C060200000000007408A9006B
:100E40000000AF007408A800C002A9000000000064
:100E5000C022A800C222AE00FEFF37000060FE00E4
:100E6000000009000000000001000900000000006F
:100E7000C002A8000060FE000000090000000000A1
:100E80000040EB007408AE000000E800000006001F
:100E900083002000C002A8000060FE0001000900DD
:100EA00000000000C022A800C222AE00FEFF3700F2
:100EB000C202AF004200A800C202AE004200A90078
:100EC0000281D2000060FE00000009000000000066
:100ED000C022A900C422A9008301E900EDFF3A0065
:100EE000C002A8000060FE00010009000000000030
:100EF000C402A9000100E0004220AE00C002A90027
:100F000000000000C022A800C222AE00FEFF370091
:100F10000060FE000000090000000000C422A900DB
:100F2000C022A9000060FE000100090000000000CE
:100F3000C402A900C002A900020078000000060057
:100F4000FA060200000000000004E000FCFF32008E
:100F5000C002A8000060FE000000090000000000C0
:100F6000C022A8000060FE0001000900000000008F
:100F7000C402A900C002A9000060FE000000090030
:100F800000000000C422A900C022A90001CAB300C9
:100F90009C06020000000000714380009C060200D5
:100FA00000000000C002A8000060FE000000090070
:100FB00000000000C022A8000060FE00010009003F
:100FC00000000000C222AE00FEFF3700C402A900EC
:100FD000C002A9000060FE0000000900000000003F
:100FE000C422A900C022A90011CAB3009C060200B5
:100FF0000000000001002000811F7800CF00780071
:1010000048070200000000006FE8B700C002A90016
:1010100000000000C022A800C222AE00FEFF370080
:101020000060FE000000090000000000010009004F
:1010300000000000C002A8000060FE0000000900DF
:10104000000000006FC8BF0000000600851F780088
:1010500004202E0044168800C902A900CD02A90070
:1010600003000900000000007568EF00A443800041
:101070004822DE006824E10013003100C902A90003
:10108000CD02A8000300090000000000C922A8004A
:10109000CB22AE000500370074C8BF004100DD0060
:1010A0006140700074E8B700010037007468D40034
:1010B000C902A900CD02A900030009000000000038
:1010C0007568EC00E9FF370004002E004416880024
:1010D00074C8BF0000E0B700CF027800000006002F
:1010E000C922A900CD22A9000300090000000000C8
:1010F000C902A900CD02A8000300090000000000F9
:10110000C902A900CD02A9000300090000000000E7
:10111000C902A900CD02A80000000600C922A9004A
:10112000CD22A8000300090000000000C902A900A8
:10113000CD02A8000300090000000000C902A900B8
:10114000CD02A9000300090000000000C902A900A7
:10115000CD02A8000000060000C8B30072E8B70086
:10116000DC0502000000000010CDB30074E8B700F9
:10117000F6050200000000000268A9000000AF00B0
:101180000268A800260802000000000071E8B7000D
:1011900070080200000000002608020000000000A5
:1011A00070E8B70070080200000000002608020086
:1011B0000000000072E8B7008E0802000000000086
:1011C00058060200000000007008F8000000F90056
:1011D00000000600851F7800C500200003000900FC
:1011E000B51F7800000278008102780002037800C1
:1011F000830378000000EB008000EB000001EB00AF
:101200008001EB000800A10007F0A60005003700F0
:101210000800A0000402EA008582EA000683EA00D2
:101220008783EA008504720002003A008704730095
:1012300015003200394720000340A7000B0037009B
:101240004200A9000482D2008582D2000683D20027
:101250008783D2000080D2008180D2000281D20038
:101260008381D2008904E900F3FF3A00C44CDD0019
:101270004200A90009F0A1000340A10083816C0095
:101280000800A70003F0A0002501200003000900CA
:10129000CF127800CF02780000000600881F780087
:1012A0002801200004000900B81F78008005EB0029
:1012B0006066B8000304780087047800FA7F200095
:1012C0004200A9004220A90044C4DE0008046500D1
:1012D0000800E000700032004200A9004220A9008E
:1012E000C4CCDE00890465000900E0006A00320019
:1012F0000884440009B0A70004003700F83FB1009B
:101300006500320064003900030037001A402000F5
:101310008542450060003100878669004200A900CF
:101320004220A900F300B2000340A000F700B20081
:101330000740A000881F78000124B800002DB800E5
:101340000A0544008B854C000C80B0000224B800D4
:101350008B0544000C864C00012CB8008B05440022
:101360000C864C000034B8000005EB008B054400EF
:101370000C864C000A80B0008005EB000324B80006
:101380000C0644000A854C000B80B000022CB8000B
:101390000C0644000A854C000B80B0000134B800F4
:1013A0000C0644000A854C000B80B000003CB800DD
:1013B0000C0644000A854C000B80B0000C0078003D
:1013C0000006EB00032CB8000A0544008B854C0096
:1013D0000C80B0000234B8000A0544008B854C0034
:1013E0000C80B0000334B8008B0544000C864C0020
:1013F000013CB8000A0544008B854C000C80B0000D
:10140000023CB8008B0544000C864C00033CB8003D
:101410000C0644008A0078000B0178008C017800EB
:10142000540020004200A9008381D3000281D30030
:101430008180D3000080D3000402E900F9FF3A0064
:101440004F0478000804E800010370000100320036
:101450000200370003037100080032000340A700B8
:10146000060037004200A9000080D2008180D2002F
:101470000281D2008381D2000804E9004444DD00E7
:1014800003F0A1000DF0A70003F0A0000340A100AD
:1014900083016C00030037006000B8006001B800F1
:1014A00000003700A8012000040009004F14780054
:1014B0004F04780000000600881F780028012000F3
:1014C00004000900B81F78008786690003047800CB
:1014D00087047800FA7F20004200A9004220A9007A
:1014E00044C4DE00080465000800E0006C0032001F
:1014F0004200A9004220A900C4CCDE008904650096
:101500000900E000660032000005EB000906540007
:1015100003003900FC3FB0006100310004003700D7
:101520001B4020000B0656005D0039005C003200B5
:101530000004EB008004EB000005EB008005EB00ED
:10154000F301B2000340A000F701B2000740A00081
:101550008C1F78006C032000040050008580580028
:10156000060159008781590002003300060031004E
:1015700006003A000400400085804800060149004A
:1015800087814900010037000800A0000C06E9002F
:101590000B0032004200A9000080D2008180D200FE
:1015A0000281D2008381D2004200A9000884D200C7
:1015B0008984D2000A85D2008B85D200E6FF3700ED
:1015C0004F0678000B50A7000100370006003700D7
:1015D0004200A9008B85D3000A85D3008984D300FB
:1015E0000884D300030037000C06E9004200A9007C
:1015F0002B0032004200AF00090037000080D2000B
:101600008180D2000281D2008381D2000402500086
:101610008582580006035900878359001500390058
:101620000804E80013003A008904E80011003A00B9
:101630000A05E8000F003A008B05E8000D003A00AB
:101640000C06E800160032000A0037000C06E9001C
:10165000130032000B40A700060037004200A9002B
:101660000884D2008984D2000A85D2008B85D200FA
:10167000F8FF37004466DD004200A9000CF0A1002D
:101680000DF0A7000CF0A0000B40A1008B016E0034
:101690000A0178008900780008007800050037000A
:1016A00000002000010020000200200003002000B4
:1016B00000003700A8012000040009004F14780042
:1016C0004F04780000000600851F7800861F780010
:1016D00003027800030378004200A90044A2DE0060
:1016E000F57F20000482620003003A006000B80029
:1016F0000001EB00130037000438B100F300B20022
:10170000370020004200A9000080D2008180D20072
:101710000281D2008381D2008703E900F9FF3A00F9
:1017200001007800820078000370A1000480FD00B1
:101730004200A9000482D30006F0A70004F0A00034
:1017400003016A004F037800CF0278000000060012
:10175000851F7800C500200003000900B51F780030
:101760008004EB00080028004300AF0083016C00F8
:10177000010578008A8569000103780083037800F9
:10178000030678004220A9004200A9000683D20087
:101790000680FD00F60FB2000600E000A100320056
:1017A0004220A9004200A9008783D2000780FD00E3
:1017B000F70FB2000700E0009F0032004220A900AE
:1017C0004200A9000638E1009C003200A30033006B
:1017D0000900A1000910A000068453000703780047
:1017E000F10FB2000170A000F30FB2000370A0006F
:1017F000870220000838E100110033004220A900D0
:101800004200A9008180D3000080D3000804E900D1
:10181000FAFF3A000D003700870220000838E10087
:10182000090033004220A9004200A9008381D300AF
:101830000281D3000804E900FAFF3A000F003700E4
:101840000200780083007800430037000BF0A60008
:10185000110037000940A7008C0578000000EA005D
:101860000200320081C0EA00010037008100EA0076
:101870000940A7002B003700070037000BF0A60037
:10188000050037000201EA000200320083C1EA00CD
:10189000010037008301EA00F50FB2004220A900E1
:1018A0004200A9000200400083C048004200AF008F
:1018B0000930A0000900A700090037000910A7009F
:1018C000010037000B0037000BF0A70015003700B0
:1018D0000930A700290037000960A0001E0037006A
:1018E0000BF0A7000F0037000930A70023003700D6
:1018F000190037000920A1000BF0A70004003700F1
:101900008A0578000930A7001C0037003600370030
:101910000940A00001C8B2000170A700CDFF370048
:101920008A057800F10FB200810370000A003200CE
:101930000170A700080037004220A9004200A9005A
:101940000080D2008180D2000603E9004220AF006F
:1019500031003700F6FF37000900A7008A0578003C
:101960000910A7008C0578000950A6001A0037005E
:101970000AF0A7000080A0001B0037004200A8006A
:1019800081C0D3000080D3004200AF000950A00006
:101990000603E800200032000950A60008003700C6
:1019A0000000E80006003A008140E80004003A0028
:1019B00081C0D3000080D3000603E8001600320087
:1019C0000900A7008A0578000910A7008C05780097
:1019D0004220AF00100037000960A7008A05780098
:1019E0000970A7008C057800010170002300320007
:1019F0000170A1000680FD004220A9004200A9005C
:101A00000683D30081006B0001F0A0000BF0A6005C
:101A100001F0A100190037000000200001002000A3
:101A2000160037000AF0A70083016C00020078005E
:101A3000830078001100370010003700F30FB20068
:101A40000370A000F10FB2000170A0000BF0A7001E
:101A50000370A1000920A00088FF3700070453008D
:101A6000F10FB2000170A000F30FB2000370A000EC
:101A70000910A1000900A00067FF37002501200020
:101A800003000900CF127800CF02780000000600A2
:101A9000851F7800C500200004000900B51F7800EC
:101AA0008004EB00838468000103780080027800E2
:101AB00003047800820378008180D2000180FD0059
:101AC0008180FB000100E0004E0032008381D200E3
:101AD0000380FD008381FB000300E0004900320029
:101AE0000000EB0003C0500003003900F047B000D5
:101AF00044003100030037001048B10041003900B4
:101B00004000320085007800060178000270A000D5
:101B1000F20FB200F80FB2000870A0009A01200086
:101B20008001EB000002EB008780500008015900A3
:101B3000020033000400310004003A0087804000B6
:101B400008014900010037000400A0000A05E9006F
:101B5000070032004200A9008180D2000281D20039
:101B60004200A9000482D2008381D200EEFF370038
:101B70000005EB000380A7000100370006003700D6
:101B80004200A9008381D3000370A1000482D30026
:101B90000A85D200020037000000E9001900320077
:101BA0000AF0A700050039008180D2000281D2002E
:101BB0008780500008015900090039000402E8003C
:101BC00007003A008301E80005003A000000E80041
:101BD0000C003200020037000000E900090032006A
:101BE0000080FD008080D30001F0A00009F0A60075
:101BF00001F0A1000370A10081C069000400780019
:101C00000300370000002000010020000000370022
:101C10004501200004000900CF127800CF027800AF
:101C20000000060000017800810178000140780082
:101C30000080FD0000F0A0008180D2000180FD0046
:101C40008180FB00E4082000814052000600320041
:101C50000000E000040032004200A9000080D30030
:101C60008100E900FAFF3A0003F0A6000200370005
:101C70000000EA000000370000000600FA0602003B
:101C8000000000000004E000FCFF3200C002A800D9
:101C90000060FE000000090000000000C022A80053
:101CA0000060FE000100090000000000C402A9005D
:101CB000C002A9000060FE00000009000000000052
:101CC000C422A900C022A90001CAB3009C060200D8
:101CD00000000000814380009C060200000000001C
:101CE00071C8BF00800078009C0602000000000060
:101CF000C002A90000000000C022A800C222AE005D
:101D0000FEFF37000060FE00000009000000000038
:101D10000100090000000000C002A8000060FE00F1
:101D2000000009000000000000000600851F780088
:101D3000861F7800871F7800C9E2A800CBE2AE00BA
:101D400008003700C9C2A800CBC2AE0005003700AA
:101D5000C9A2A800CBA2AE00020037006628EF009F
:101D600002013700C9E2A800CBE2AE00060037004E
:101D7000C9C2A800CBC2AE0003003700C9A2A800A8
:101D8000CBA2AF00070037006608E20005003A006A
:101D900014002000344388001400200044438800CD
:101DA000F2003700C9E2A800CBE2AE00060037001F
:101DB000C9C2A800CBC2AE0003003700C9A2A80068
:101DC000CBA2AF00D7003700344380006120E10090
:101DD000D4003A006808E200030032006828ED00F1
:101DE000E2003700CF003700C9E2A800CBE2AF0025
:101DF000510037004468EC00244280006424E10074
:101E0000010036004468EF004448E2000A003A004E
:101E10000248AE00070037000248A90060C0B300C6
:101E200070E8B70050C8BF0071E8B7003E0E02006E
:101E30000000000038003700244280006124E100E7
:101E400007003A0004A22A0024418800440420002C
:101E5000344188000248AE00000037002E003700F1
:101E6000244280006224E1000C003A0004A22A000F
:101E70002441880044042000344188000248AE0018
:101E8000050037007068EF0056C8BF0071E8B70062
:101E90003E0E0200000000001F00370024428000B8
:101EA0006324E1000D003A0004A22A0024418800C6
:101EB00044042000344188000248AE000600370088
:101EC00020C0B30070E8B7005AC8BF0071E8B7007F
:101ED0003E0E0200000000000F0037002442800088
:101EE0006424E1000C003A0004A22A002441880086
:101EF00044042000344188000248AE000600370048
:101F000040C0B30070E8B70052C8BF0071E8B70026
:101F10003E0E02000000000004A22A0024418800B6
:101F200044042000344188004401200044438800D8
:101F30002400200034438800C9C2A800CBC2AF00EF
:101F40003B0037000248AE003900370044C8BF00EC
:101F50000160EF001080B200070032003080B20054
:101F6000100032001080B200170032007080B20002
:101F70001F003200280037005608F8006E08F900EC
:101F80005628EC00D442800061005200B442800028
:101F90000020E100020036006E08F8005608F90043
:101FA0001D0037005A08F8006E08F9005A28EC00A6
:101FB000D44280007820E100020036006E08F8006C
:101FC0005A08F900140037005208F8006E08F900AA
:101FD0005228EC0094428000C30320000418E10062
:101FE00002003D006E08F8005208F9000A003700B0
:101FF0005008F8006E08F9005028EC008442800078
:10200000C30320000418E10002003D006E08F80040
:102010005008F900000037003400200034438800E5
:1020200004A22A002441880044042000344188008E
:10203000C9A2A800CBA2AF003A0037000248AE0008
:102040003800370044C8BF000160EF001080B200C4
:10205000070032003080B2000E0032001080B20063
:10206000180032007080B2001F00320027003700D5
:102070005608F8006E08F9005628ED00B4428000BA
:102080006F20E100020031006E08F8005608F900E8
:102090001E0037005A08F8006E08F9005A28ED00B3
:1020A000B44280006102420004007800D442800003
:1020B0000020E100020031006E08F8005A08F90023
:1020C000120037005208F8006E08F9005228ED009F
:1020D000944280006020E10002003D006E08F8009C
:1020E0005208F900090037005008F8006E08F9009E
:1020F0005028ED00844280006020E10002003D0095
:102100006E08F8005008F900000037003400200085
:102110003443880004A22A0024418800440420009B
:1021200034418800C9E2A800CBE2AF000F003700BD
:10213000344380006220E1000C003A006808E200AD
:10214000030032006828ED00080037000300370064
:102150000248A80010C0B30044E8B70004A22A0057
:10216000244188004404200034418800CF037800D3
:102170004F037800CF02780000000600851F78002A
:10218000C500200004000900B51F78000002780097
:102190008102780083037800020378004200A900DE
:1021A0004220A9008180D2000180FD00F10FB20021
:1021B0000100E000480032004200A9004220A900CE
:1021C0008381D2000380FD00F30FB2000300E00022
:1021D000410032000080FB0001C0410004003100DA
:1021E000F007B1003C0032003B003900020037002C
:1021F0001048B0003800310007856A004200A9008D
:102200004220A900F50FB2000570A0004200A9000D
:10221000F70FB2000770A0000621B800062CB80026
:1022200083014C0089007800043CB80083014C0015
:1022300081804C00072CB80081004C000000E800B1
:102240000100E0004220AF0001003700030037002A
:102250000300E0004220AF000500370001F0A700B6
:10226000030037008381D2008180D2000000E900A2
:10227000010178004200A9000370A60009003700A0
:1022800007F02F00878161000310B0006001490052
:102290000200E00003003A000300E00001003A0001
:1022A0000000E8000080FD004200A9004220A900D3
:1022B0008080D3000AF0A70001F0A00002F0A10086
:1022C0000280FD00814069000380FD000341780029
:1022D0000200780003003700000020000100200009
:1022E000000037004501200004000900CF127800EB
:1022F000CF0278000000060010C0B30060E8B7000D
:10230000000006006068EF0000000600851F7800EE
:10231000861F7800871F7800881F7800AC080200AD
:1023200000000000804188008541800005007800A1
:102330008001EB0000F0A7008081EB0083007800B3
:1023400003017800EA08020000000000851F780001
:10235000C49F2A00152F2D00D62426000700240034
:102360004E09020000000000CF02780080027800D1
:10237000010378008203780003047800851F780049
:10238000861F7800871F7800050078008600780097
:102390000701780088017800040020000500200073
:1023A00006FC2F00F70D24005C0A0200000000006C
:1023B000CF0378004F037800CF027800640B02004F
:1023C0000000000091418800A24188004300A9005C
:1023D000D0418000E1418000F24180000342800052
:1023E000A80B0200000000000001780081017800C5
:1023F000F041800001428000480D02000000000012
:10240000000178008101780090418000A1418000A6
:10241000480D020000000000B0418800C141880062
:10242000B0418000C1418000120E02000000000097
:1024300040408800B0418000C1418000020020007F
:1024400003122400BE10020000000000B04188000A
:10245000C1418800B0418000C1418000120E0200DD
:10246000000000005040880044408000C31220005B
:102470000418E100020031000828EF000A28EF00EC
:102480006E68EF00744380006A24E10012003D0092
:102490006EC8BF000000FB00000278006220B80098
:1024A000C4802000840240007443800061424200E6
:1024B0000440780000E0B700004278000960EF00B7
:1024C0006220B800C480200004004000900A780018
:1024D0006E68EC00EBFF37000A08F8002008F900EE
:1024E0000A28EF000C08F8000A08F90050408000A4
:1024F0000E08B40050408800504080001008B4001E
:1025000050408800504080001208B40050408800BD
:10251000504080001408B4005040880050408000B3
:102520001608B40050408800504080001808B400DD
:1025300050408800504080001A08B4005040880085
:10254000504080001C08B40050408800504080007B
:102550001E08B4005040880054408000A3002000B2
:10256000110009000302D80050408800F4428000A6
:102570006020E100B4003C0040408000B442800094
:102580000020E100430039004548E20041003A00E4
:1025900094428000833E200003A0B900504288008E
:1025A00050428000843E20000400E1000D00320013
:1025B000047D20000400E1000E00320084BB2000F6
:1025C0000400E1000F00320004FA20000400E100E2
:1025D00010003200843821000400E10011003200B4
:1025E00014003700544280000405B10054428800B2
:1025F00011003700544280004406B1005442880064
:102600000D003700544280004406B1005442880057
:1026100009003700544280006404B100544288002D
:1026200005003700544280004406B100544288003F
:1026300001003700000037000208A80010C0B300F6
:1026400045E8B7004A08E2000C003A00C8C2A900F9
:10265000CCC2A900C8E2A900CCE2A90020C0B30006
:1026600045E8B7000208A900C882A900CC82A800EA
:10267000C802A900CC02A900060037006048E200A9
:1026800002003A007C11020000000000C862A900AC
:10269000CC62A800B0428000444080000020E100ED
:1026A0000D003900244280004822DE006124E10050
:1026B00009003A00C882A900CC82A900C802A9007A
:1026C000CC02A8004A28EF004568EF000208A900E4
:1026D0008211020000000000D042800044408000CF
:1026E0000020E10046003900244280004822DE003C
:1026F0006224E10042003A0084428000833E2000D0
:1027000003A0B9003042880030428000843E20009F
:102710000400E1000D003200047D20000400E1000F
:102720000E00320084BB20000400E1000F003200E4
:1027300004FA20000400E100100032008438210077
:102740000400E10011003200140037003442800020
:102750000405B10034428800110037003442800083
:102760002403B100344288000D0037003442800059
:102770006404B1003442880009003700344280000C
:102780006404B10034428800050037003442800000
:102790006404B100344288000100370000003700B3
:1027A0000228A80030C0B30045E8B7004608E200A0
:1027B0000F003A00C8C2A900CCC2A800C8E2A90014
:1027C000CCE2A800244280004822DE006324E1001D
:1027D00001003A004568EF000228A900C882A9005C
:1027E000CC82A900C802A900CC02A80004003700CE
:1027F0006048E20002003A007C1102000000000084
:1028000040408000D44280000020E1000E003900EA
:10281000244280004822DE006324E1000A003A00DE
:10282000C882A900CC82A800C802A900CC02A900D5
:1028300020C0B30045E8B7004628EF000208A90011
:1028400082110200000000004F047800CF037800DE
:102850004F037800CF0278000000060040442400B7
:102860003005880081E0A8004427EF000208A90095
:102870000228A9000368EF000468EF000568EF0074
:102880000668EF000248A9002968EF002A68EF00F7
:102890002B68EF0010C0B3002CE8B7002D68EF00E4
:1028A0000268A8000288A80002A8A8003228EF0049
:1028B0003428EF003628EF003828EF000400240009
:1028C000D4418800C4612400E44188003E28EF0020
:1028D000A4422400044288004468EF004568EF00E9
:1028E0004628EF004828EF004A28EF004C28EF0068
:1028F00084252000F44288006068EF006168EF00E2
:1029000074002000244388002CA3EF002AA3EF00CA
:102910000F782100F07F210020A0B7000000000008
:102920000028EF006228EF006628EF006828EF001B
:102930001021EF00349C20006408880004012A0064
:10294000840888001221EF00F4F920007408880040
:1029500004002A00940888009500A800003A80002E
:1029600065006000A0FF2F004027B6000000E000D7
:1029700094E0A8004220EF0084002E004416880056
:10298000C9A2A800C9C2A800C9E2A800C982A900BA
:10299000CD82A900C962A900CD62A900C942A900DF
:1029A000CD42A900C862A900CC62A9002003200082
:1029B000BE050200000000007206020000000000D8
:1029C0006E68EF00A00702000000000056E8B700A4
:1029D0005768EF00B44280006F20E1000300390027
:1029E000B44280007720E10002003600F4002000AD
:1029F000B442880020C0B3006EE8B700A007020010
:102A0000000000005AE8B7005B68EF00B4428000A5
:102A10006102420004007800D44280000020E100FE
:102A200003003900D44280007820E1000300360022
:102A3000B442800065024200D442880040C0B30026
:102A40006EE8B700A00702000000000052E8B700DF
:102A50005368EF00944280006020E10004003500DC
:102A600094428000C30320000418E10002003D00EE
:102A7000540020009442880060C0B3006EE8B700A4
:102A8000A00702000000000050E8B7005168EF0006
:102A9000844280006020E100040035008442800010
:102AA000C30320000418E10002003D005400200090
:102AB00084428800401F2000BE0502000000000084
:102AC0006A68EF00544380006A24E10053003C0030
:102AD000AC080200000000008041880085418000B1
:102AE000050078008001EB0000F0A7008081EB007A
:102AF0008300780003017800EA080200000000006B
:102B0000851F7800C49F2A00152F2D00D62426008B
:102B1000070024004E09020000000000CF027800E8
:102B200080027800010378008203780003047800B3
:102B3000851F7800861F7800871F780005007800C1
:102B400086007800070178008801780004002000E2
:102B50000500200006FC2F00F70D24005C0A02008F
:102B600000000000CF0378004F037800CF02780008
:102B7000640B02000000000091418800A24188001F
:102B80004300A900D0418000E1418000F241800073
:102B900003428000A80B0200000000000001780042
:102BA00081017800F041800001428000480D020060
:102BB0000000000000017800810178009041800051
:102BC000A1418000480D020000000000B0418800D3
:102BD000C1418800B0418000C1418000120E020056
:102BE00000000000404088006AC8BF000000FB00F1
:102BF000000278006220B800C480200084024000F7
:102C0000444080008402980040012000BE0502007C
:102C1000000000006A68EC00AAFF37000C08F8000A
:102C20000808F900404080000E08B40040408800C9
:102C3000404080001008B4004040880040408000C0
:102C40001208B40040408800404080001408B400DE
:102C500040408800404080001608B4004040880092
:102C6000404080001808B400404088004040800088
:102C70001A08B40040408800404080001C08B4009E
:102C800040408800404080001E08B400404088005A
:102C900044408000A3002000110009000382D800F6
:102CA0004040880040408000B44280000020E100A5
:102CB0000C003900C8C2A900CCC2A900C8E2A90012
:102CC000CCE2A90020C0B30045E8B7000208A90083
:102CD000C882A900CC82A800C802A900CC02A90021
:102CE0000B003700C8C2A900CCC2A800C8E2A900E6
:102CF000CCE2A800C882A900CC82A900C802A90021
:102D0000CC02A8004A28EF004568EF000208A9009D
:102D100040A7A8000421EF0002A1EF0004012A004F
:102D20002408880074002000644388006C28EC00AC
:102D3000C082A900C482AA000060FE006443800033
:102D4000C35D2000110009000382D80081027800D1
:102D50000500E00002003A00960E020000000000AC
:102D600064438000833E2000110009000382D800E4
:102D7000810278000500E00002003A00861102009E
:102D80000000000064438000E3FE270011000900FA
:102D90000382D800810278000500E00009003A00B3
:102DA000C8A2A900CCA2AA00140020006443880095
:102DB000444080006A20E1000200310072060200F7
:102DC000000000002408E20002003A002608E200A9
:102DD0000B0032002428ED004200AE002628ED0052
:102DE0002408E20006003A002608E20004003A0047
:102DF0002428EF002628EF004468EF000248A900CD
:082E0000CAFF37000040FE008C
:0857F800F7AA0000EF1F0000FA
:00000001FF
;PIC24FJ16GA004
;CRC=D77E  CREATED="14-¡.¤.-20 08:59"
