:08000000D61804000000000006
:08004400C605000036020000B1
:100400003220EF00C3202000008041001040BA00DD
:100410000160EF0000000600C0F90000A4B0000079
:100420009992000082F80000809000004F0478004C
:10043000CF0378004F037800CF0278003220EF001E
:10044000A3222000008041001040BA000160EF00AC
:1004500000000600FEFD0000FBF700004F047800DE
:10046000CF0378004F037800CF0278004200F800F5
:100470003600F800801F7800200020000C000900E2
:10048000B01F78006848E200620032000368EC00A8
:100490000468EC004A08E2002600320014408000A4
:1004A0004822DE00830C2000041CE1000C003E000A
:1004B000244080004822DE006124E10004003A006C
:1004C0000568EF00C882A900CC82A80004003700AC
:1004D00010C0B30005E8B700C882A900CC82A9000B
:1004E0004A28ED00544280006020E10011003C00E9
:1004F0004A28EF00C8C2A900CCC2A900C8E2A900DE
:10050000CCE2A90020C0B30045E8B7000208A9006A
:10051000C882A900CC82A800C802A900CC02A90008
:10052000C862A900CC62A9004608E20001003A00B6
:100530006868EF004608E2002B003200144080009B
:100540004822DE00830C2000041CE1000C003E0069
:10055000244080004822DE006124E10004003A00CB
:100560000568EF00C802A900CC02A800040037000B
:1005700010C0B30005E8B700C802A900CC02A9006A
:100580004628ED00344280006020E10016003C0067
:100590004628EF00C8C2A900CCC2A800C8E2A90042
:1005A000CCE2A800244280004822DE006324E1005F
:1005B00001003A004568EF000208A900C882A900BE
:1005C000CC82A900C802A900CC02A8004A08E20017
:1005D00005003A004C08E20003003A004808E20037
:1005E00001003A006868EF00144080004822DE00F5
:1005F000830C2000041CE10001003E000368EF00B2
:1006000024408000830C2000041CE10001003E0017
:100610000468EF008500A900A00120000C0009007B
:100620004F1078004F0078003600F9004200F900C2
:100630000040060000017800810178000140780048
:100640000080FD0000F0A0008180D2000180FD004C
:100650008180FB00E4082000814052000600320047
:100660000000E000040032004200A9000080D30036
:100670008100E900FAFF3A0003F0A600020037000B
:100680000000EA0000003700000006009468EF0058
:100690004448E20003003A000A08F8006A08F9003A
:1006A0003B003700244280006124E10006003A004C
:1006B000B0428000C14280001A0302000000000026
:1006C0005043880032003700244280006224E10059
:1006D00006003A00D0428000E14280001A03020086
:1006E00000000000504388002900370024428000A9
:1006F0006324E10006003A00F042800001438000DC
:100700001A03020000000000504388002000370058
:10071000244280006424E10006003A001043800077
:10072000214380001A0302000000000050438800AB
:1007300017003700244280006524E10003003A00DE
:100740005208F8006A08F9001100370024428000BE
:100750006624E10003003A004E08F8006A08F90038
:100760000B003700244280006724E10003003A00B8
:100770005008F8006A08F90005003700244280009C
:100780006824E10002003A005408F8006A08F90001
:100790006C28ED00644380006020E10019003C00FB
:1007A0007400200064438800544380004306200006
:1007B000110009000302D8002FE8B700544380005D
:1007C00043062000110009000302D8000100780050
:1007D00042E8B700144280000960EF00A300200047
:1007E000110009000382D80042E8B700544380009A
:1007F000A3002000110009000302D80001007800C6
:1008000043E8B7006968EC00444380004822DE00FA
:100810006224E100010034006968EF0069C8BF008C
:100820000160EF000080B200050032001080B200CD
:10083000080032003080B2000B0032000F00370099
:1008400043C8BF0096E8B70069C8BF0097E8B70083
:100850000A00370042C8BF0096E8B70069C8BF0069
:1008600097E8B700050037002FC8BF0096E8B7002B
:1008700069C8BF0097E8B7000000370096C8BF00FE
:100880000000FB00000202000000000095E8B70035
:100890000248AE00080037006948E20006003A004E
:1008A000344080004822DE007424E100020036005B
:1008B00095E8A90000003700444380004822DE008C
:1008C0006124E10003003A004448E20001003A00DC
:1008D00095E8A90070C0B30094E8B700A444800074
:1008E0006024E1001100350095C8BF008000780049
:1008F00094C8BF000100A50002003100CD82A9000C
:1009000001003700CD82A800C982A900C962A900F0
:10091000CD62A8000200090000000000C962A90021
:10092000CD62A9009468ED00ECFF370097C8BF00C6
:100930000000FB001E0202000000000095E8B70066
:10094000444380004822DE006224E10004003A00B3
:100950002F48E20002003A009548A800090037003D
:10096000444380004822DE006124E10005003A0093
:100970004248E20003003A002F48E20001003A003A
:100980009528A8004448E20006003A00A4448000EC
:100990004822DE00044FB3000440780095E8B70019
:1009A0005D003700244280006124E10007003A0026
:1009B0009588A900A44480004822DE00044EB300BC
:1009C0000440780095E8B7005300370024428000C7
:1009D0006224E10007003A0095A8A900A444800021
:1009E0004822DE00044DB3000440780095E8B700CB
:1009F00049003700244280006324E1000B003A00E4
:100A0000A44480004822DE00F44AB200044078008A
:100A100095E8B700A44480004822DE00044AB300F1
:100A20000440780095E8B7003B003700244280007E
:100A30006424E1000B003A00A44480004822DE0058
:100A4000F449B2000440780095E8B700A44480005F
:100A50004822DE000449B3000440780095E8B7005E
:100A60002D003700244280006524E1000B003A008D
:100A7000A44480004822DE00F446B200044078001E
:100A800095E8B700A44480004822DE000446B30085
:100A90000440780095E8B7001F003700244280002A
:100AA0006624E1000B003A00A44480004822DE00E6
:100AB000F445B2000440780095E8B700A4448000F3
:100AC0004822DE000445B3000440780095E8B700F2
:100AD00011003700244280006724E10007003A003B
:100AE000A44480004822DE00F442B20004407800B2
:100AF00095E8B70095A8A8000700370024428000B9
:100B00006824E10004003A0095C8BF007F406000FF
:100B100095E8B7009588A80070C0B30094E8B700C6
:100B2000A44480006024E1001100350095C8BF0096
:100B30008000780094C8BF000100A50002003100C9
:100B4000CD82A90001003700CD82A800C982A9008A
:100B5000C962A900CD62A8000200090000000000DF
:100B6000C962A900CD62A9009468ED00ECFF3700CE
:100B7000C942A900CD42A8000200090000000000FF
:100B8000C942A900CD42A900000006004200F800B9
:100B90003600F800801F7800200020000C000900BB
:100BA000B01F780046030200000000000768ED0057
:100BB0000748E20002003A0080C2B30007E8B7002D
:100BC0002D48E200040032002D68ED002D48E200BF
:100BD00001003A002D68EF006608E20009003200CB
:100BE0006628ED00344380006020E10005003C00F1
:100BF0006628EF004628EF004828EF004A28EF005B
:100C00004C28EF0084E0A900A00120000C0009009E
:100C10004F1078004F0078003600F9004200F900CC
:100C2000004006000000E0004220AF000400370052
:100C3000990F0900000000000000E900F9FF3700EB
:100C40000000060004002E0044168800C902A90016
:100C5000CD02A800C922A900CD22A80000000600EC
:100C6000C902A900CD02A80003000900000000008D
:100C7000C922A900CD22A90003000900000000003C
:100C8000C902A900CD02A90003000900000000006C
:100C9000000006007D68EF00E44380004822DE008B
:100CA0006824E10014003100C902A900CD02A900A6
:100CB00003000900000000007CE8AE0003003700DC
:100CC000C922A900CD22A80002003700C922A9002C
:100CD000CD22A9000300090000000000C902A900FC
:100CE000CD02A80003000900000000007C68D400C9
:100CF0007D68EC00E8FF3700C902A900CD02A90019
:100D00000300090000000000C922A8000300090038
:100D100000000000C902A900CD02A80003000900DC
:100D200000000000C922A8007E68EF00CB22AF00BF
:100D30007E68EC0004002E0044168800C902A90059
:100D4000CD02A90003000900000000007EC8BF001A
:100D500000E0B70000000600C922A900CD22A900CA
:100D60000300090000000000C902A900CD02A8008C
:100D70000300090000000000C922A900CD22A8003C
:100D80000300090000000000000006002206020027
:100D900000000000300602000000000000CDB3009B
:100DA0007CE8B7004A060200000000000268A900C3
:100DB0000000AF000268A80080C1B3007CE8B70063
:100DC0004A060200000000000288A9000000AF00EF
:100DD0000288A800AC060200000000000000060027
:100DE000820020000060FE000000090000000000FA
:100DF000C422A900C022A9000060FE000100090071
:100E00000000000081C0D200C402A9004200AF006F
:100E1000C002A8004200AE00C002A900C022A80083
:100E2000C222AE00FEFF37000201E900EDFF3A00EA
:100E30000060FE000000090000000000C422A900BC
:100E4000C022A90000000000C002A8000060FE004F
:100E500001000900000000000060FE000100090020
:100E600000000000C022A800C222AE00FEFF370032
:100E70000060FE00010009000000000000002000EA
:100E8000C202AF000000A000C422A900C022A90035
:100E9000C402A900C002A90000000600C002A80008
:100EA0000060FE000000090000000000C022A80051
:100EB0000060FE000100090000000000C402A9005B
:100EC000C002A9000060FE00000009000000000050
:100ED000C422A900C022A90001CAB300F006020082
:100EE000000000007E08A9000000AF007E08A800F6
:100EF000C002A90000000000C022A800C222AE006B
:100F0000FEFF37000060FE00000009000000000046
:100F10000100090000000000C002A8000060FE00FF
:100F200000000900000000000040EB007E08AE0059
:100F30000000E8000000060083002000C002A800B6
:100F40000060FE000100090000000000C022A800AF
:100F5000C222AE00FEFF3700C202AF004200A8006E
:100F6000C202AE004200A9000281D2000060FE0071
:100F70000000090000000000C022A900C422A9004E
:100F80008301E900EDFF3A00C002A8000060FE0006
:100F90000100090000000000C402A9000100E000F7
:100FA0004220AE00C002A90000000000C022A8003C
:100FB000C222AE00FEFF37000060FE000000090004
:100FC00000000000C422A900C022A9000060FE00A9
:100FD0000100090000000000C402A900C002A9002D
:100FE00002007800000006004E070200000000002A
:100FF0000004E000FCFF3200C002A8000060FE0018
:101000000000090000000000C022A8000060FE00EF
:101010000100090000000000C402A900C002A900EC
:101020000060FE000000090000000000C422A900CA
:10103000C022A90001CAB300F006020000000000AF
:10104000B1438000F006020000000000C002A800CA
:101050000060FE000000090000000000C022A8009F
:101060000060FE000100090000000000C222AE0086
:10107000FEFF3700C402A900C002A9000060FE0004
:101080000000090000000000C422A900C022A9003D
:1010900011CAB300F00602000000000001002000A9
:1010A000811F7800CF0078009C070200000000003C
:1010B00077E8B700C002A90000000000C022A80025
:1010C000C222AE00FEFF37000060FE0000000900F3
:1010D000000000000100090000000000C002A8009C
:1010E0000060FE00000009000000000077C8BF009B
:1010F00000000600851F7800861F7800E1082000A8
:101100000000E0001200320000F0A70004003700E9
:101110004200A9000080D2008100E900FAFF3700F8
:101120000180FD004200A9008180D30000F0A100F1
:101130000080FD00814068000040B20007003700D9
:10114000014078000170A0000140B20003003700A8
:101150000000EB008000EB00000037004F03780038
:10116000CF02780000000600851F7800861F7800F7
:10117000871F78000382680004F0A600060037008D
:101180004200A9004220A90001F0A6002600370075
:101190004200A80024003700010278008002780095
:1011A00003037800820378008180D2000180FD0073
:1011B0008381D2000380FD0081C051000500320010
:1011C00004F0A600180037001000200042E0B6002E
:1011D0001500370084407800864178000170A10036
:1011E0000370A10081C051000500320004F0A60088
:1011F0000D0037001000200042E0B6000A00370062
:10120000858053000500320004F0A6000600370078
:101210001000200042E0B600030037004200A900A1
:101220000100370000003700CF0378004F0378003B
:10123000CF02780000000600851F7800C50020005E
:1012400003000900B51F78008004EB0008002800A7
:101250004300AF0083016C00010578008A856900B6
:101260000103780083037800030678004220A90078
:101270004200A9000683D2000680FD00F60FB200EE
:101280000600E000A10032004220A9004200A900AF
:101290008783D2000780FD00F70FB2000700E0004F
:1012A0009F0032004220A9004200A9000638E10058
:1012B0009C003200A30033000900A1000910A00027
:1012C0000684530007037800F10FB2000170A000FC
:1012D000F30FB2000370A000870220000838E1007D
:1012E000110033004220A9004200A9008180D300F0
:1012F0000080D3000804E900FAFF3A000D0037002F
:10130000870220000838E100090033004220A900CC
:101310004200A9008381D3000281D3000804E900C0
:10132000FAFF3A000F0037000200780083007800CF
:10133000430037000BF0A600110037000940A7005A
:101340008C0578000000EA000200320081C0EA004B
:10135000010037008100EA000940A7002B00370098
:10136000070037000BF0A600050037000201EA0075
:101370000200320083C1EA00010037008301EA0065
:10138000F50FB2004220A9004200A900020040006F
:1013900083C048004200AF000930A0000900A70048
:1013A000090037000910A700010037000B003700C3
:1013B0000BF0A700150037000930A70029003700FF
:1013C0000960A0001E0037000BF0A7000F003700D7
:1013D0000930A70023003700190037000920A100B9
:1013E0000BF0A700040037008A0578000930A70039
:1013F0001C003700360037000940A00001C8B200C9
:101400000170A700CDFF37008A057800F10FB20008
:10141000810370000A0032000170A7000800370045
:101420004220A9004200A9000080D2008180D200A1
:101430000603E9004220AF0031003700F6FF370015
:101440000900A7008A0578000910A7008C0578001C
:101450000950A6001A0037000AF0A7000080A0007B
:101460001B0037004200A80081C0D3000080D300D9
:101470004200AF000950A0000603E800200032003F
:101480000950A600080037000000E80006003A00F6
:101490008140E80004003A0081C0D3000080D300FE
:1014A0000603E800160032000900A7008A0578004C
:1014B0000910A7008C0578004220AF00100037000B
:1014C0000960A7008A0578000970A7008C057800DC
:1014D00001017000230032000170A1000680FD00B0
:1014E0004220A9004200A9000683D30081006B00BE
:1014F00001F0A0000BF0A60001F0A10019003700D8
:101500000000200001002000160037000AF0A700AC
:1015100083016C000200780083007800110037001E
:1015200010003700F30FB2000370A000F10FB200FB
:101530000170A0000BF0A7000370A1000920A0001B
:1015400088FF370007045300F10FB2000170A000BC
:10155000F30FB2000370A0000910A1000900A00061
:1015600067FF37002501200003000900CF12780033
:10157000CF02780000000600851F780004202E00AE
:1015800044168800C902A900CD02A9000300090081
:10159000000000007D68EF00E44380004822DE0088
:1015A0006824E10013003100C902A900CD02A8009F
:1015B0000300090000000000C922A800CB22AE00F1
:1015C000050037007CC8BF004100DD0061407000AD
:1015D0007CE8B700010037007C68D400C902A9008C
:1015E000CD02A90003000900000000007D68EC00A6
:1015F000E9FF370004002E00441688007CC8BF00B5
:1016000000E0B700CF02780000000600C922A90060
:10161000CD22A9000300090000000000C902A900B2
:10162000CD02A8000300090000000000C902A900C3
:10163000CD02A9000300090000000000C902A900B2
:10164000CD02A80000000600C922A900CD22A800F2
:101650000300090000000000C902A900CD02A80093
:101660000300090000000000C902A900CD02A90082
:101670000300090000000000C902A900CD02A80073
:101680000000060000C8B3007AE8B7003006020088
:101690000000000010CDB3007CE8B7004A0602004D
:1016A000000000000268A9000000AF000268A80066
:1016B000BC0A02000000000079E8B700060B020037
:1016C00000000000BC0A02000000000078E8B7003B
:1016D000060B020000000000BC0A0200000000002F
:1016E0007AE8B700240B020000000000AC060200FC
:1016F000000000007808F8000000F9000000060073
:10170000851F7800C500200003000900B51F780080
:1017100000027800810278000203780083037800D9
:101720000000EB008000EB000001EB008001EB000B
:101730000800A10007F0A600050037000800A0007F
:101740000402EA008582EA000683EA008783EA0051
:101750008504720002003A0087047300150032000D
:10176000394720000340A7000B0037004200A900C2
:101770000482D2008582D2000683D2008783D20001
:101780000080D2008180D2000281D2008381D20009
:101790008904E900F3FF3A00C44CDD004200A900CF
:1017A00009F0A1000340A10083816C000800A7009C
:1017B00003F0A0002501200003000900CF127800EB
:1017C000CF02780000000600881F78002801200062
:1017D00004000900B81F78008005EB006066B800BF
:1017E0000304780087047800FA7F20004200A900F3
:1017F0004220A90044C4DE00080465000800E0009F
:10180000700032004200A9004220A900C4CCDE00D2
:10181000890465000900E0006A0032000884440081
:1018200009B0A70004003700F83FB100650032009E
:1018300064003900030037001A402000854245004B
:1018400060003100878669004200A9004220A9009B
:10185000F300B2000340A000F700B2000740A00070
:10186000881F78000124B800002DB8000A05440044
:101870008B854C000C80B0000224B8008B0544001E
:101880000C864C00012CB8008B0544000C864C00E3
:101890000034B8000005EB008B0544000C864C00BA
:1018A0000A80B0008005EB000324B8000C06440059
:1018B0000A854C000B80B000022CB8000C064400D6
:1018C0000A854C000B80B0000134B8000C064400BF
:1018D0000A854C000B80B000003CB8000C064400A8
:1018E0000A854C000B80B0000C0078000006EB006D
:1018F000032CB8000A0544008B854C000C80B00016
:101900000234B8000A0544008B854C000C80B000FE
:101910000334B8008B0544000C864C00013CB80031
:101920000A0544008B854C000C80B000023CB800D6
:101930008B0544000C864C00033CB8000C064400A8
:101940008A0078000B0178008C0178005400200098
:101950004200A9008381D3000281D3008180D3009B
:101960000080D3000402E900F9FF3A004F04780038
:101970000804E80001037000010032000200370093
:1019800003037100080032000340A700060037007F
:101990004200A9000080D2008180D2000281D200E2
:1019A0008381D2000804E9004444DD0003F0A10073
:1019B0000DF0A70003F0A0000340A10083016C001C
:1019C000030037006000B8006001B8000000370075
:1019D000A8012000040009004F1478004F0478008B
:1019E00000000600881F780028012000040009007C
:1019F000B81F7800878669000304780087047800A0
:101A0000FA7F20004200A9004220A90044C4DE0061
:101A1000080465000800E0006C0032004200A900E4
:101A20004220A900C4CCDE00890465000900E00062
:101A3000660032000005EB0009065400030039007F
:101A4000FC3FB00061003100040037001B40200063
:101A50000B0656005D0039005C0032000004EB000C
:101A60008004EB000005EB008005EB00F301B20001
:101A70000340A000F701B2000740A0008C1F7800CF
:101A80006C032000040050008580580006015900B6
:101A900087815900020033000600310006003A0039
:101AA0000400400085804800060149008781490004
:101AB000010037000800A0000C06E9000B0032000E
:101AC0004200A9000080D2008180D2000281D200B1
:101AD0008381D2004200A9000884D2008984D20008
:101AE0000A85D2008B85D200E6FF37004F067800CA
:101AF0000B50A70001003700060037004200A90084
:101B00008B85D3000A85D3008984D3000884D30051
:101B1000030037000C06E9004200A9002B00320048
:101B20004200AF00090037000080D2008180D2005F
:101B30000281D2008381D2000402500085825800C5
:101B40000603590087835900150039000804E8008E
:101B500013003A008904E80011003A000A05E80081
:101B60000F003A008B05E8000D003A000C06E80073
:101B7000160032000A0037000C06E900130032009C
:101B80000B40A700060037004200A9000884D200DD
:101B90008984D2000A85D2008B85D200F8FF3700F5
:101BA0004466DD004200A9000CF0A1000DF0A70082
:101BB0000CF0A0000B40A1008B016E000A01780020
:101BC0008900780008007800050037000000200038
:101BD0000100200002002000030020000000370068
:101BE000A8012000040009004F1478004F04780079
:101BF00000000600851F7800861F78000302780029
:101C0000030378004200A90044A2DE00F57F200013
:101C10000482620003003A006000B8000001EB009B
:101C2000130037000438B100F300B2003700200081
:101C30004200A9000080D2008180D2000281D2003F
:101C40008381D2008703E900F9FF3A0001007800A0
:101C5000820078000370A1000480FD004200A9000A
:101C60000482D30006F0A70004F0A00003016A007C
:101C70004F037800CF02780000000600851F78002F
:101C8000C500200004000900B51F78008004EB00A7
:101C900083846800010378008002780003047800E0
:101CA000820378008180D2000180FD008180FB00EA
:101CB0000100E0004E0032008381D2000380FD006D
:101CC0008381FB000300E000490032000000EB00CC
:101CD00003C0500003003900F047B0004400310059
:101CE000030037001048B1004100390040003200C5
:101CF00085007800060178000270A000F20FB200A3
:101D0000F80FB2000870A0009A0120008001EB00DB
:101D10000002EB00878050000801590002003300E8
:101D20000400310004003A008780400008014900A7
:101D3000010037000400A0000A05E9000700320096
:101D40004200A9008180D2000281D2004200A90095
:101D50000482D2008381D200EEFF37000005EB0041
:101D60000380A70001003700060037004200A900E9
:101D70008381D3000370A1000482D3000A85D200BE
:101D8000020037000000E900190032000AF0A70045
:101D9000050039008180D2000281D2008780500086
:101DA00008015900090039000402E80007003A0060
:101DB0008301E80005003A000000E8000C00320052
:101DC000020037000000E900090032000080FD0039
:101DD0008080D30001F0A00009F0A60001F0A1006E
:101DE0000370A10081C0690004007800030037007F
:101DF0000000200001002000000037004501200005
:101E000004000900CF127800CF027800000006001D
:101E10004E070200000000000004E000FCFF32005A
:101E2000C002A8000060FE000000090000000000E1
:101E3000C022A8000060FE000100090000000000B0
:101E4000C402A900C002A9000060FE000000090051
:101E500000000000C422A900C022A90001CAB300EA
:101E6000F006020000000000D1438000F0060200EE
:101E7000000000007BC8BF0080007800F006020070
:101E800000000000C002A90000000000C022A8005D
:101E9000C222AE00FEFF37000060FE000000090015
:101EA000000000000100090000000000C002A800BE
:101EB0000060FE00000009000000000000000600B5
:101EC000851F7800861F7800E10820000600A10029
:101ED00000F0A600030037000600A0000000EA00A2
:101EE000000037000000E0001400320000F0A700FE
:101EF000040037004200A9000080D2008100E90000
:101F0000FAFF37000180FD004200A9008180D30064
:101F100000F0A1000080FD00814068000040B20098
:101F20000600A70001F0A00007003700014078007C
:101F30000170A0000140B200030037000000EB0078
:101F40008000EB00000037004F037800CF027800DC
:101F500000000600881F7800280120000400090006
:101F6000B81F7800080028004300AF0087036C000A
:101F7000030578008A856B000304780087047800E5
:101F800007067800FD7F20004220A9004200A9003A
:101F900044C4DE00088466000800E000BC00320093
:101FA0004220A9004200A900C4CCDE00898466005A
:101FB0000900E000BE0032008006EB004220A900CC
:101FC0004200A9000848E100BA003200C100330015
:101FD0000D00A1000D10A00008845400F300B20011
:101FE0000340A000F700B2000740A0004803B10082
:101FF00016003B004803B0004220A9004200A9009F
:102000008381D3000281D3008180D3000080D3007C
:102010000804E900F8FF3A00140037004803B10053
:102020000F003B004803B0004220A9004200A90075
:102030008783D3000683D3008582D3000482D30034
:102040000804E900F8FF3A001B003700040078009C
:102050008500780006017800870178000C866D0005
:102060000CF0A7000BF0A200790037000BF0A600DF
:102070001F0037000D40A7008C0578000080EA00A3
:102080008180EA000281EA0083C1EA00F341B200E4
:102090000000E80005003A008100E80003003A0073
:1020A0000201E80001003A008341E8000D40A7006A
:1020B000320037000E0037000BF0A6000C0037008E
:1020C0000482EA008582EA000683EA0087C3EA0008
:1020D000F741B2000402E80005003A008502E8007A
:1020E00003003A000603E80001003A008743E800D5
:1020F0004220A9004200A900040040008580480059
:102100000601490087C149000350A7000D30A00017
:102110000D00A700090037000D10A70001003700CF
:102120000B0037000BF0A700140037000D30A7009C
:10213000290037000D60A000210037000BF0A70038
:102140000E0037000D30A700230037001C003700B9
:102150000BF0A700040037008A0578000D30A700B7
:102160001D0037003A0037000D40A00003C1B20047
:102170000340A700BFFF37008A057800F301B200D3
:102180000284710002003A00008470000C003200EA
:102190000340A7000A0037004220A9004200A9001E
:1021A0000080D2008180D2000281D2008381D200DF
:1021B0008904E9004220AF0032003700F4FF370005
:1021C0000D00A7008A0578000D10A7008C05780087
:1021D0000D50A6001E0037004200A90083C1D300A5
:1021E0000281D3008180D3000080D3004200AF0081
:1021F0000D50A0008904E8004220AF002100370004
:102200000D50A6000E0037000000E8000C003A0058
:102210008100E8000A003A000201E80008003A00E4
:102220008301E80006003A0083C1D3000281D30095
:102230008180D3000080D3008904E80011003200BF
:102240000D00A7008A0578000D10A7008C05780006
:102250000102700002003A00030271002600320001
:102260000340A1004220A9004200A900C44CDD00A7
:1022700083816C0003F0A0000BF0A60003F0A10026
:102280001D0037006000B8006011B8001A00370068
:10229000080028000AF0A70087036C00850078007A
:1022A00004007800060178008701780012003700EA
:1022B00011003700F700B2000740A000F300B200A1
:1022C0000340A0000BF0A7000740A1000D20A000D4
:1022D00079FF3700F300B2000340A000F700B2001E
:1022E0000740A00009045400890444000D10A10017
:1022F0000D00A00049FF3700A801200004000900DC
:102300004F1478004F04780000000600851F780005
:10231000C500200005000900B51F780003047800FF
:10232000820378000103780080027800830478003B
:102330003B472000C499DE00FA7F2000830165003E
:1023400083855500F801B2000840A0000000EB00B2
:102350008000EB000001EB008001EB004200A900CF
:102360000884D3008783D3000683D3008582D300FB
:102370008381D3000281D3008180D3000080D30009
:102380008B05E900F5FF3A0009F0A60005003700CB
:102390000000EA008180EA000281EA008381EA000D
:1023A000000037006501200005000900CF12780009
:1023B000CF02780000000600851F7800861F780095
:1023C000871F7800C9E2A800CBE2AE000800370002
:1023D000C9C2A800CBC2AE0005003700C9A2A80040
:1023E000CBA2AE00020037006E28EF009501370047
:1023F000C9E2A800CBE2AE0006003700C9C2A800BF
:10240000CBC2AE0003003700C9A2A800CBA2AF0028
:10241000070037006E08E20005003A0014002000B3
:10242000744388001400200084438800850137002D
:10243000C9E2A800CBE2AE0006003700C9C2A8007E
:10244000CBC2AE0003003700C9A2A800CBA2AF00E8
:102450006A013700744380006120E10067013A009F
:102460007008E200030032007028ED0075013700AB
:1024700062013700C9E2A800CBE2AF00610037007B
:102480004468EC00244280006424E100010036002E
:102490004468EF004448E2000A003A000248AE00F7
:1024A000070037000248A90060C0B3007AE8B7000F
:1024B00050C8BF007BE8B700080F02000000000012
:1024C00048003700244280006124E10007003A0000
:1024D00004A22A00244188004404200034418800DA
:1024E0000248AE00000037003E0037002442800062
:1024F0006224E10014003A0004A22A00244188006A
:1025000044042000344188000248AE000D0037002A
:102510004200F80042E0EF00B0428000C14280007B
:102520001A030200000000004200F9008042780017
:102530007A68EF00054078007BE8B700080F0200DA
:102540000000000027003700244280006324E100DF
:1025500015003A0004A22A00244188004404200007
:10256000344188000248AE000E0037004200F800F7
:1025700042E0EF00F0428000014380001A030200B5
:10258000000000004200F9008042780020C0B30043
:102590007AE8B700054078007BE8B700080F020032
:1025A000000000000F003700244280006424E10096
:1025B0000C003A0004A22A002441880044042000B0
:1025C000344188000248AE000600370040C0B30026
:1025D0007AE8B70052C8BF007BE8B700080F0200D6
:1025E0000000000004A22A002441880044042000C6
:1025F00034418800440120008443880024002000E6
:1026000074438800C9C2A800CBC2AF009000370055
:102610000248AE008E00370044C8BF000160EF00E2
:102620001080B200070032003080B2002800320073
:102630001080B200440032007080B20060003200AE
:102640007D0037004200F80042E0EF00B042800019
:10265000C14280001A030200000000004200F9009D
:10266000B04388004300A900B0428000C14280000E
:10267000D2CC2C00C3DC23001C09020000000000A7
:10268000B0428800C14288004300A800F0428000A8
:10269000014380000200200003F823001C0902000F
:1026A00000000000B2428000C3428000B408020073
:1026B0000000000005003900B0438000600F0200F8
:1026C00000000000B0428800C14288005A00370074
:1026D0004200F80042E0EF00F04280000143800039
:1026E0001A030200000000004200F900B043880015
:1026F0004300A900F042800001438000D2CC2C00AE
:10270000C3DC23001C09020000000000F042880026
:102710000143880000002000011C2400F2428000D8
:1027200003438000B40802000000000005003900E7
:10273000B0438000600F020000000000F0428800FB
:10274000014388003C0037005208F8007608F90081
:1027500095428000050078008001EB0000F0A700A2
:102760008081EB008300780003017800800B020079
:10277000000000004300A900851F7800A4992900EB
:10278000959929009699290097FB2300AA0F02002A
:1027900000000000CF027800861102000000000057
:1027A0009042880094428000C30320000418E10096
:1027B00002003D007608F8005208F9001E003700BC
:1027C0005008F8007608F90085428000050078007E
:1027D0008001EB0000F0A7008081EB00830078000F
:1027E00003017800800B0200000000004300A900F4
:1027F000851F7800A49929009599290096992900A8
:1028000097FB2300AA0F020000000000CF0278000F
:10281000861102000000000080428800844280008F
:10282000C30320000418E10002003D007608F80010
:102830005008F9000000370034002000744388007D
:1028400004A22A0024418800440420003441880066
:10285000C9A2A800CBA2AF00680037000248AE00B2
:102860006600370044C8BF000160EF001080B2006E
:10287000070032003080B200230032001080B20026
:10288000460032007080B2004D0032005500370023
:102890004200F80042E0EF00B0428000C1428000F8
:1028A0001A030200000000004200F900B043880053
:1028B0004300A800B0428000C1428000D2CC2C006E
:1028C000C3DC23001C09020000000000B0428800A5
:1028D000C1428800B0428000C14280000200200056
:1028E00003172400B40802000000000005003900AE
:1028F000B0438000600F020000000000B04288007A
:10290000C1428800370037004200F80042E0EF0083
:10291000F0428000014380001A0302000000000022
:102920004200F900B04388004300A800F042800054
:1029300001438000D2CC2C00C3DC23001C09020020
:1029400000000000F0428800014388004300A90015
:10295000B0428000C14280000200200003F8230042
:102960001C090200000000000001780081017800CD
:10297000F042800001438000B40802000000000023
:1029800005003900B0438000600F02000000000025
:10299000F042880001438800120037005208F80016
:1029A0007608F9005228ED00944280006020E10092
:1029B00002003D007608F8005208F90009003700CF
:1029C0005008F8007608F9005028ED008442800095
:1029D0006020E10002003D007608F8005008F90090
:1029E00000003700340020007443880004A22A004D
:1029F000244188004404200034418800C9E2A80032
:102A0000CBE2AF000F003700744380006220E1008A
:102A10000C003A007008E200030032007028ED005C
:102A200008003700030037000248A80010C0B300B8
:102A300044E8B70004A22A0024418800440420008E
:102A400034418800CF0378004F037800CF0278002C
:102A500000000600851F7800C50020000400090062
:102A6000B51F7800000278008102780083037800A7
:102A7000020378004200A9004220A9008180D20010
:102A80000180FD00F10FB2000100E00048003200BB
:102A90004200A9004220A9008381D2000380FD00EA
:102AA000F30FB2000300E000410032000080FB00A1
:102AB00001C0410004003100F007B1003C003200C9
:102AC0003B003900020037001048B00038003100E8
:102AD00007856A004200A9004220A900F50FB20054
:102AE0000570A0004200A900F70FB2000770A00017
:102AF0000621B800062CB80083014C00890078003C
:102B0000043CB80083014C0081804C00072CB800C5
:102B100081004C000000E8000100E0004220AF000E
:102B200001003700030037000300E0004220AF003F
:102B30000500370001F0A700030037008381D200B1
:102B40008180D2000000E900010178004200A90064
:102B50000370A6000900370007F02F00878161008D
:102B60000310B000600149000200E00003003A00D9
:102B70000300E00001003A000000E8000080FD00D2
:102B80004200A9004220A9008080D3000AF0A700DB
:102B900001F0A00002F0A1000280FD008140690068
:102BA0000380FD0003417800020078000300370035
:102BB0000000200001002000000037004501200037
:102BC00004000900CF127800CF0278000000060050
:102BD00010C0B30068E8B700000006006868EF00A6
:102BE00000000600851F7800861F7800871F780088
:102BF000881F7800420B020000000000804188001E
:102C000085418000050078008001EB0000F0A700FE
:102C10008081EB008300780003017800800B0200C4
:102C200000000000851F7800C49F2A00152F2D008A
:102C3000D624260007002400E40B02000000000058
:102C4000CF027800800278000103780082037800C8
:102C500003047800851F7800861F7800871F78009E
:102C60000500780086007800070178008801780068
:102C7000040020000500200006FC2F00F70D2400B2
:102C8000F20C020000000000CF0378004F03780030
:102C9000CF027800FA0D0200000000009141880088
:102CA000A24188004300A900D0418000E14180009A
:102CB000F2418000034280001C0902000000000075
:102CC0000001780081017800F0418000014280001D
:102CD0003E0E020000000000000178008101780033
:102CE00090418000A14180003E0E020000000000E3
:102CF000B0418800C14188004200F80042E0EF0086
:102D0000B0418000C14180001A03020000000000B1
:102D10004200F90040408800B0418000C14180007D
:102D200002002000031224002A1502000000000007
:102D3000B0418800C14188004200F80042E0EF0045
:102D4000B0418000C14180001A0302000000000071
:102D50004200F9005040880044408000C312200027
:102D60000418E100020031000828EF000A28EF00F3
:102D70007668EF00B44380006A24E10012003D0051
:102D800076C8BF000000FB00000278006220B80097
:102D9000C480200084024000B443800061424200AD
:102DA0000440780000E0B700004278000960EF00BE
:102DB0006220B800C480200004004000900A78001F
:102DC0007668EC00EBFF37000A08F8002008F900ED
:102DD0000A28EF000C08F8000A08F90050408000AB
:102DE0000E08B40050408800504080001008B40025
:102DF00050408800504080001208B40050408800C5
:102E0000504080001408B4005040880050408000BA
:102E10001608B40050408800504080001808B400E4
:102E200050408800504080001A08B400504088008C
:102E3000504080001C08B400504088005040800082
:102E40001E08B4005040880054408000A3002000B9
:102E5000110009000302D80050408800344380006C
:102E60006020E100CC003C00404080007A08020075
:102E700000000000B2428000C3428000B40802009B
:102E8000000000000100310043003A004548E20024
:102E900041003A0094428000833E200003A0B90024
:102EA0005042880050428000843E20000400E1002F
:102EB0000D003200047D20000400E1000E0032000D
:102EC00084BB20000400E1000F00320004FA20005F
:102ED0000400E10010003200843821000400E10009
:102EE0001100320014003700544280000405B10084
:102EF0005442880011003700544280004406B1005B
:102F0000544288000D003700544280004406B1004E
:102F10005442880009003700544280006404B10024
:102F20005442880005003700544280004406B10036
:102F30005442880001003700000037000208A80052
:102F400010C0B30045E8B7004A08E2000C003A00A0
:102F5000C8C2A900CCC2A900C8E2A900CCE2A9005D
:102F600020C0B30045E8B7000208A900C882A90044
:102F7000CC82A800C802A900CC02A9000600370034
:102F80006848E20002003A00E81502000000000074
:102F9000C862A900CC62A800404080007A08020004
:102FA000000000000001780081017800B04280003C
:102FB000C1428000B408020000000000010031009E
:102FC0000D003A00244280004822DE006124E10026
:102FD00009003A00C882A900CC82A900C802A90051
:102FE000CC02A8004A28EF004568EF000208A900BB
:102FF000EE15020000000000404080007A08020048
:10300000000000000001780081017800F04280009B
:1030100001438000B40802000000000001003100FC
:1030200046003A00244280004822DE006224E1008B
:1030300042003A0084428000833E200003A0B90091
:103040003042880030428000843E20000400E100CD
:103050000D003200047D20000400E1000E0032006B
:1030600084BB20000400E1000F00320004FA2000BD
:103070000400E10010003200843821000400E10067
:103080001100320014003700344280000405B10002
:103090003442880011003700344280002403B1001C
:1030A000344288000D003700344280006404B100CF
:1030B0003442880009003700344280006404B100C3
:1030C0003442880005003700344280006404B100B7
:1030D0003442880001003700000037000228A800B1
:1030E00030C0B30045E8B7004608E2000F003A00E0
:1030F000C8C2A900CCC2A800C8E2A900CCE2A800BE
:10310000244280004822DE006324E10001003A00EE
:103110004568EF000228A900C882A900CC82A90056
:10312000C802A900CC02A800040037006848E200E9
:1031300002003A00E8150200000000004040800054
:103140007A08020000000000F24280000343800081
:10315000B408020000000000010031000E003A0037
:10316000244280004822DE006324E1000A003A0085
:10317000C882A900CC82A800C802A900CC02A9007C
:1031800020C0B30045E8B7004628EF000208A900B8
:10319000EE150200000000004F047800CF03780015
:1031A0004F037800CF02780000000600404424005E
:1031B0003005880081E0A8004427EF000208A9003C
:1031C0000228A9000368EF000468EF000568EF001B
:1031D0000668EF000248A9002968EF002A68EF009E
:1031E0002B68EF0010C0B3002CE8B7002D68EF008B
:1031F0000268A8000288A80002A8A8003228EF00F0
:103200003428EF003628EF003828EF0004002400AF
:10321000D4418800C4612400E44188003E28EF00C6
:10322000A4422400044288004468EF004568EF008F
:103230004628EF004828EF004A28EF004C28EF000E
:1032400084252000344388006868EF006968EF0037
:1032500074002000644388002CA3EF002AA3EF0031
:103260000F782100F07F210020A0B70000000000AF
:103270000028EF006A28EF006E28EF007028EF00AA
:103280001021EF00349C20006408880004012A000B
:10329000840888001221EF00F4F9200074088800E7
:1032A00004002A00940888009500A800003A8000D5
:1032B00065006000A0FF2F004027B6000000E0007E
:1032C00094E0A8004220EF0084002E0044168800FD
:1032D000C9A2A800C9C2A800C9E2A800C982A90061
:1032E000CD82A900C962A900CD62A900C942A90086
:1032F000CD42A900C862A900CC62A9002003200029
:103300001206020000000000C606020000000000D5
:103310007668EF00F4070200000000000160EF0093
:103320007A08020000000000B0428800C142880014
:10333000B0428000C1428000020020000317240038
:10334000B408020000000000070031000000200067
:10335000811B2400B2428000C3428000B4080200F6
:1033600000000000030039005628EF000417240075
:10337000C442880020C0B30076E8B700F40702001A
:10338000000000000160EF007A0802000000000069
:10339000F0428800014388004300A900B042800049
:1033A000C14280000200200003F823001C09020033
:1033B000000000000001780081017800F0428000E8
:1033C00001438000B4080200000000000700310043
:1033D00000002000011C2400F24280000343800012
:1033E000B408020000000000090039004300A900F1
:1033F000B0428000C142800002002000030A240085
:103400001C09020000000000F0428800014388000F
:1034100040C0B30076E8B700F407020000000000E7
:1034200052E8B7005368EF00944280006020E1004A
:103430000400350094428000C30320000418E1001A
:1034400002003D00540020009442880060C0B30098
:1034500076E8B700F40702000000000050E8B7006B
:103460005168EF00844280006020E10004003500D4
:1034700084428000C30320000418E10002003D00E4
:103480005400200084428800401F200012060200E1
:10349000000000007268EF00944380006A24E1009D
:1034A00056003C00420B02000000000080418800F2
:1034B00085418000050078008001EB0000F0A70046
:1034C0008081EB008300780003017800800B02000C
:1034D00000000000851F7800C49F2A00152F2D00D2
:1034E000D624260007002400E40B020000000000A0
:1034F000CF02780080027800010378008203780010
:1035000003047800851F7800861F7800871F7800E5
:1035100005007800860078000701780088017800AF
:10352000040020000500200006FC2F00F70D2400F9
:10353000F20C020000000000CF0378004F03780077
:10354000CF027800FA0D02000000000091418800CF
:10355000A24188004300A900D0418000E1418000E1
:10356000F2418000034280001C09020000000000BC
:103570000001780081017800F04180000142800064
:103580003E0E02000000000000017800810178007A
:1035900090418000A14180003E0E0200000000002A
:1035A000B0418800C14188004200F80042E0EF00CD
:1035B000B0418000C14180001A03020000000000F9
:1035C0004200F9004040880072C8BF000000FB00C4
:1035D000000278006220B800C4802000840240000D
:1035E000444080008402980040012000120602003E
:1035F000000000007268EC00A7FF37000C08F8001C
:103600000808F900404080000E08B40040408800DF
:10361000404080001008B4004040880040408000D6
:103620001208B40040408800404080001408B400F4
:1036300040408800404080001608B40040408800A8
:10364000404080001808B40040408800404080009E
:103650001A08B40040408800404080001C08B400B4
:1036600040408800404080001E08B4004040880070
:1036700044408000A3002000110009000382D8000C
:1036800040408800404080007A08020000000000AE
:10369000B2428000C3428000B40802000000000073
:1036A000010031000C003A00C8C2A900CCC2A90038
:1036B000C8E2A900CCE2A90020C0B30045E8B700E9
:1036C0000208A900C882A900CC82A800C802A900EB
:1036D000CC02A9000B003700C8C2A900CCC2A800C8
:1036E000C8E2A900CCE2A800C882A900CC82A90047
:1036F000C802A900CC02A8004A28EF004568EF00E4
:103700000208A90040A7A8000421EF0002A1EF00D1
:1037100004012A002408880074002000A4438800C3
:103720007428EC00C082A900C482AA000060FE00D8
:10373000A4438000C35D2000110009000382D8006B
:10374000810278000500E00002003A00DC1102006E
:1037500000000000A4438000833E20001100090007
:103760000382D800810278000500E00002003A00E0
:10377000F215020000000000A4438000E3FE2700D1
:10378000110009000382D800810278000500E000E2
:1037900009003A00C8A2A900CCA2AA001400200087
:1037A000A4438800444080006A20E1000200310008
:1037B000C6060200000000002408E20002003A00F1
:1037C0002608E2000B0032002428ED004200AE0083
:1037D0002628ED002408E20006003A002608E20050
:1037E00004003A002428EF002628EF004468EF0088
:0C37F0000248A900CAFF37000040FE009C
:0857F800F7AA0000EF1F0000FA
:00000001FF
;PIC24FJ16GA004
;CRC=E3BE  CREATED="03-¾.¤.-23 14:59"
